:020000040800F2
:10000000080600209D010008552800088D260008DC
:1000100051280008C91200086141000800000000D2
:10002000000000000000000000000000A9340008EB
:10003000CD12000800000000E5330008AD340008D0
:10004000B7010008B7010008B7010008B7010008B0
:10005000B7010008B7010008B7010008B7010008A0
:10006000B7010008B7010008B7010008B701000890
:10007000B7010008B7010008B7010008B701000880
:10008000B7010008B7010008B7010008B701000870
:10009000B7010008B7010008B7010008B701000860
:1000A000B7010008B7010008B7010008B701000850
:1000B000B7010008B701000800000000B701000800
:1000C000B70100080000000000000000B7010008B0
:1000D00000000000B7010008B70100085541000802
:1000E000B7010008B7010008000000000000000090
:1000F0000000000000000000000000000000000000
:1001000000000000000000000000000000000000EF
:100110000000000000000000C53400084135000860
:1001200000000000000000000000000000000000CF
:1001300000000000000000000000000000000000BF
:10014000B7010008B701000800000000B70100086F
:10015000B7010008B7010008B7010008B70100089F
:10016000B7010008B701000800000000000000000F
:10017000000000000000000000000000000000007F
:1001800000000000B7010008DFF80CD000F024FDEB
:1001900000480047E9440008080600200648804758
:1001A00006480047FEE7FEE7FEE7FEE7FEE7FEE75C
:1001B000FEE7FEE7FEE7FEE7B1340008890100082C
:1001C0000FB400B58DB010A909900B9000914FF0BD
:1001D000FF300A9000200C900548069005480790D3
:1001E0006A4609A80F9900F017FB0DB05DF814FBE3
:1001F00035080008530800082DE9FF4F087883B040
:100200009946FF2805D0491C2D2804D00024002041
:1002100008E000200BE00124F9E700EB800003EB8D
:100220004000491C0B78FF2BF7D104B1404200235A
:100230000293147819461D462D2C01D02B2C04D185
:10024000521C2D2C13D000240294AA461478FF2CA3
:100250000FD00A25A3FB057801FB05814FF0000CA8
:1002600003FB0C11521CE3194AEB0101EEE70124D8
:10027000EAE7814453EA010002D019F5C87F06DAA3
:1002800003980021C0E9001107B0BDE8F08F0025F8
:10029000AE4E2F46DFF8B882184600F060FCCDE97C
:1002A0000001B9F1000002DAC9F1000400E00446DF
:1002B0000023A74A1AEB030B42EB045A12E0E007B3
:1002C00007D02A4633463846414600F067FB0746CA
:1002D00088462A4633461046194600F05FFB05461D
:1002E0000E466410002CEAD1DDE90001B9F1000FDF
:1002F0005A46534606DA00F0C3FB3A46434600F03E
:10030000BFFB05E000F04AFB3A46434600F046FBDF
:10031000029A0AB181F00041039AC2E90001B3E7F1
:100320002DE9FF4F1F468DB0D7E901464FF0FF384A
:100330002E2045464FF000090B90B9696D1C0E98B0
:100340008847396A824688470028F6D1BAF1FF3FCC
:100350000AD024F4D064002E11DDBAF12B0F08D09E
:10036000BAF12D0F0BD102E0404611B08DE744F4F5
:100370008064B9696D1C0E9888478246761E69466E
:10038000600501D52D2000E02B208DF8000001F143
:10039000010B0DF1200809E0B9696D1C0E98884722
:1003A00082460F9844F40074761E0560002E02DD2C
:1003B000BAF1300FF0D00B998A453ED144F0800459
:1003C00006E00F99681CA9F1010944F40074086063
:1003D000B9696D1C761E0E98884782463028F0D089
:1003E0002BE00B998A4505D1200603D444F0800404
:1003F000761E18E0504604F003FD08B30DF1130219
:10040000761EAAF1300044F40074934506D20BF82E
:10041000010B200607D5A9F1010003E0200602D454
:1004200009F101008146A00502D50F99681C0860FA
:10043000B9696D1C0E9888478246002ED1DC53E0C6
:10044000002E51DDBAF1650F02D0BAF1450F4BD144
:10045000A00549D5B9696D1C24F44074761E0E9828
:1004600088478246002E0CDD2B2804D0BAF12D0FD0
:1004700007D144F48074B9696D1C0E988847824690
:10048000761EE00501D52D2100E02B2108F8011B87
:10049000CDF82C8021E00DF12901761E44F4007482
:1004A00088450CD2AAF1300010F0FF0088F8000057
:1004B00002D10B99884509D908F1010806E0E00549
:1004C00001D5244801E042F20F708146B9696D1CE4
:1004D0000E98884782460F980560002E04DD50462E
:1004E00004F08EFC0028D6D1F9690E988847FF20C9
:1004F0008BF8000088F800000020069007904B461B
:100500006A4608A906A8FFF777FEA00502D46FF097
:1005100001002AE714F0240F0AD0E00714D1DDE926
:1005200006123868031D3B600068C0E900120BE04A
:10053000DDE9060100F0E5F80146E00704D138687E
:10054000021D3A600068016028460EE70000144072
:100550000000F03FF1D8FFFF2DE9FE4F804681EA11
:100560000300C00F0C46009021F0004123F000452D
:10057000B8EB0200A94105D24046214690461C46F0
:100580000B46024623F00040104347D0270DC7F327
:100590000A00C3F30A510290401A019040286BDA16
:1005A000C3F3130040F4801B0098924620B100234F
:1005B000D2EB030A63EB0B0B01985946C0F14002E2
:1005C000504600F001F906460D4650465946019A3C
:1005D00000F009F910EB08006141002487EA11528C
:1005E00084EAE7731A4340D0009A62B3019A012A61
:1005F0004FEA075215DC001B61EB02014FF000428D
:1006000002EA0752CDE90042001C41F58011324652
:100610002B4600F075F903B0BDE8F08F4046214647
:10062000F9E7001B61EB0201001C41F58013001883
:100630005B412018A2F5001747EB030140EAD57093
:10064000B6196D4111E06D084FEA360645EAC075EE
:100650004FEA0752001B61EB0201001C41F58011BB
:1006600049084FEA30000019514132462B4603B089
:10067000BDE8F04F00F035B900980122400000239A
:10068000D0EB020263EBE073009821464FEAE0747E
:10069000B8EB000061EB0401E9E783F000435BE79E
:1006A00081F0004158E730B5041E71F1000404DB0D
:1006B0004FF00044404264EB0101141E73F100044A
:1006C00005DB1C464FF00043524263EB0403801AE3
:1006D000994101D2012030BD002030BD00F0004220
:1006E00030F000400AD0C10D01F56071C0F3160072
:1006F00042EA0151C20840071143704700200146F9
:10070000704701F0004330B421F0004150EA01028B
:1007100006D00A0DA2F56072C1F31301002A02DCB3
:1007200030BC00207047440F44EAC104C100E01807
:1007300030BC00EBC25000F09DB830B50B4601460E
:1007400000202022012409E021FA02F59D4205D370
:1007500003FA02F5491B04FA02F52844151EA2F11A
:100760000102F1DC30BD2DE9F05F05460020924624
:100770009B4688460646814640241BE02846414663
:100780004746224600F040FA53465A46C01A914165
:1007900010D311461846224600F016F82D1A67EBC2
:1007A00001084F4622460120002100F00DF817EB0A
:1007B00000094E41201EA4F10104DFDC4846314609
:1007C0002A464346BDE8F09F202A04DB203A00FA7F
:1007D00002F1002070479140C2F1200320FA03F398
:1007E000194390407047202A06DBCB17203A41FA84
:1007F00002F043EAE07306E041FA02F3D040C2F1AE
:1008000020029140084319467047000002681144D5
:100810001378016018467047D1600449516104495A
:10082000116200211161114600F004BA0D080008A0
:10083000290C0008426842B1016811F8013B23B15C
:10084000521EC0E90012184670470121C160881E7F
:10085000704742685AB1C368016843B983688B42E4
:1008600005D0491E521CC0E90012002070474FF00D
:10087000FF3070470029A8BF7047401C490008BFDF
:1008800020F00100704710B4B0FA80FC00FA0CF0C0
:1008900050EA010404BF10BC704749B1CCF12004F8
:1008A00021FA04F411FA0CF118BF01212143084385
:1008B000A3EB0C01CB1D4FEA00614FEA102042BFB1
:1008C000002010BC704700EBC35010440029A4BFA7
:1008D00010BC7047401C490008BF20F0010010BC4C
:1008E000704710B5141E73F1000408DA401C41F182
:1008F000000192185B411A4301D120F0010010BDA4
:100900002DE9F04D92469B4611B1B1FA81F202E019
:10091000B0FA80F220329046FFF756FF04460F46A9
:1009200040EA0A0041EA0B0153465A46084313D0F5
:10093000114653EA010019D0C8F14002504600F0B8
:1009400063F905460E46504659464246FFF73CFFBE
:10095000084305D0012004E020463946BDE8F08D6B
:100960000020054346EAE0762C4337430A986305A6
:10097000E40AA0EB08000022FD0A44EA47540A30CA
:1009800002D500200146E9E7010510196941DDE9BA
:10099000084500196941BDE8F04DA2E72DE9FE4F79
:1009A00081EA030404F0004421F0004100944FF078
:1009B000000B23F0004350EA01045ED052EA030426
:1009C0005BD0C3F30A54C1F30A552C44A4F2F334A8
:1009D0000194A0FB0254C1F3130141F48011C3F34D
:1009E000130343F4801301FB024400FB034E840A0B
:1009F000970A44EA815447EA8357A4FB07680295A3
:100A00008D0A05FB07854FEA932C04FB0C54270540
:100A1000029D4FEA065847EA1637B5EB08056EEB1C
:100A2000070C870E920E47EA811742EA8312A7FB52
:100A30000201B6EB0B0164EB00042B0D43EA0C330F
:100A40005E1844EB1C50DA465146E7FB0201C5F341
:100A500013044FEA0B3343EA14534FEA0432019C68
:100A600043EA0603A4F10C040294009CCDE900B40F
:100A7000FFF746FF03B0BDE8F08F00200146F9E71D
:100A80002DE9F04D81EA030404F0004B21F000450C
:100A900014464FF0000A23F0004150EA050220D02E
:100AA00054EA01021DD0C5F30A570246C5F31303E9
:100AB000C1F31300C1F30A5640F4801543F48013C8
:100AC000A7EB0608101BD64608F2FD3873EB0500AD
:100AD00002D308F1010801E092185B41B8F1000F60
:100AE00003DA00200146BDE8F08D00204FF48011AC
:100AF000064684460EE0171B73EB050705D3121B51
:100B000063EB050306434CEA010C49084FEA300049
:100B100092185B4150EA0107EDD152EA030012D06E
:100B200082EA040083EA0501084305D0101BAB41AB
:100B300006D20122002306E000224FF0004302E02B
:100B40006FF0010253101AEB06004CEB085110EB4A
:100B50000A0041EB0B01BDE8F04DFFF7C2BE0EB538
:100B600040F2334202920022CDE900221346FFF701
:100B7000C7FE03B000BDC1F30A52C1F3130140F236
:100B8000FF3341F480119A4202DA00200146704797
:100B900040F233439A42A2F2334202DC524200F066
:100BA00033B8FFF711BE000030B5041E71F1000428
:100BB00004DB4FF00044404264EB0101141E73F16A
:100BC000000405DB1C464FF00043524263EB040374
:100BD000994208BF904230BD1CB5094800900948B1
:100BE00001900546009C06E0E06840F0010394E8AF
:100BF000070098471034AC42F6D3FFF7C9FA00005B
:100C0000D05D0008F05D0008202A04DB203A21FABC
:100C100002F00021704721FA02F3D040C2F1200215
:100C20009140084319467047C0B24FF4F05100F0AC
:100C300097B900002DE9F34F8BB04FF0000801F198
:100C40000C000C464FF0010B46460DF1080A0190CE
:100C50006269012101989047051E2DD0252D2CD0C9
:100C6000216A8847C0B16269012101989047216AD1
:100C700088470028F7D1411E62690198904700E03B
:100C8000761CA1690B988847216A88470028F7D10C
:100C9000E1690B988847DBE7A1690B98884707460D
:100CA000A84201D1761CD3E7E1690B9888477F1CE5
:100CB00002D1B8F1000F6FD046E1002762693D46CE
:100CC0003946019890472A2804D162690121019888
:100CD00090470125DFF884926269012101989047CD
:100CE000A0F130010A290AD24F45E5DC07EB870164
:100CF00000EB4107303FDFD445F01005ECE7E90693
:100D000001D46FF000476C280AD04C2814D0682812
:100D100015D06A280DD074281CD07A281AD01DE06E
:100D200062690121019890476C2802D045F00405C2
:100D300014E045F002050DE045F020050AE0626987
:100D4000012101989047682802D045F0080505E088
:100D500045F400656269012101989047C4E9015793
:100D600065283DD019DC58287AD00CDC452837D0CE
:100D700004DC252826D0412831D131E046282FD067
:100D800047282CD12CE05B2877D0612828D0632815
:100D90007CD0642823D15AE0D0E06F2848D008DC0A
:100DA00066281DD067281BD0692821D06E2816D14F
:100DB00027E0702845D0732868D0752847D0782858
:100DC0000DD14DE0A1690B988847054625283FF4D1
:100DD00069AFE1690B9888476D1C3FF46AAFB3E0D7
:100DE00023466A466FF001000B99FFF799FA9EE0DF
:100DF00045F040006060A80723464FF0000236D45B
:100E00003EE0E8077FF447AF2068011D21600068DD
:100E1000290501D506701BE7290701D5068017E7CC
:100E2000A90703D5F117C0E9006111E706600FE7D4
:100E300045F040006060A80723464FF0080216D432
:100E40001EE040F60E0125EA0100606016E045F064
:100E500040006060A80723464FF00A0207D40FE065
:100E600045F040006060A80708D5234610226FF0C7
:100E700001000B99AFF3008059E007E023461022F0
:100E80006FF001000B99AFF3008050E04FF00009C4
:100E90004F464B46632802D05B2806D040E0E80668
:100EA00001D40120A06001273AE062690121019884
:100EB00090475E2805D14FF00109626949460198C3
:100EC0009047216939B900210A46534643F8212049
:100ED000491C0829FADBB0B3216969B9C11700EBD5
:100EE000D16253110AEB830122F01F02821A012002
:100EF0000B68904003430B606269012101989047A1
:100F00005D28E8D1B9F1000F09D00020514651F811
:100F10002020D24341F82020401C0828F7DB02ABF8
:100F2000224600976FF001000B99AFF30080002874
:100F30000CDA401C08D1BBF1000F05D04FF0FF3098
:100F40000DB0BDE8F08FFFE74046F9E7E90701D1B2
:100F500008F1010806444FF0000B79E6CCCCCC0C2C
:100F60007F2801D9002208E0064A02EB5002C007A0
:100F7000127800D1120902F00F02012090400840BF
:100F8000704700003E55000841F21400C4F2020010
:100F9000016841F400310160016841F08051016055
:100FA000016841F0010101604FF09041086820F0B4
:100FB000FF0008600A680C2042F0FF02C5F2000042
:100FC0000A60D0F8FC1221F44031C0F8FC12D0F8CD
:100FD000FC1241F48031C0F8FC12D0F8FC12C0F8C9
:100FE000FC1250F8041C21F0010140F8041C50F8D8
:100FF000041C21F0405140F8041C50F8041C41F03E
:10100000805140F8041C016841F4005101600168FE
:1010100021F480310160016821F4406101600168C0
:1010200041F480610160016821F470710160016820
:1010300041F4E0710160016821F020010160016864
:1010400041F001010160016841F00201016050F8C6
:10105000041C41F0004140F8041C00BF50F8041C7F
:10106000B1F1FF3F0DDC50F8041CB1F1FF3F08DC8B
:1010700050F8041CB1F1FF3F03DC50F8041C0029B8
:10108000ECD450F8041C41F0010140F8041C416A02
:1010900041F003014162416A41F040014162416A0D
:1010A00041F400514162416A41F440214162416A88
:1010B00041F0806141624FF0A0410A68D20709D136
:1010C0000A68D20704BF0A685FEAC27202D10A68DE
:1010D000D207F2D00821C4F202010A6822F001020C
:1010E0000A6000F134028A6040F26C12C2F200021F
:1010F000CA6004224A600A6822F010020A600A6884
:1011000022F440620A600A6842F480620A600A6857
:1011100022F440720A600A6842F480720A600A6827
:1011200042F080020A600A6822F040020A600A68FF
:1011300042F020020A600A6822F440520A600A68FB
:1011400042F400520A600A6842F001020A6050F854
:10115000041C41F0040140F8041C70474FF090411A
:10116000086820F4407008600A6840F20C1042F4ED
:101170004072C5F200000A6050F8041C21F0010121
:1011800040F8041C50F8041C21F0405140F8041CA5
:1011900050F8041C41F0805140F8041C016841F4EF
:1011A00000510160016821F480310160016821F47F
:1011B00040610160016841F480610160016821F4CF
:1011C00070710160016841F4E0710160016821F013
:1011D00020010160016841F001010160016821F016
:1011E0000201016050F8041C41F0004140F8041C69
:1011F00050F8041CB1F1FF3F0DDC50F8041CB1F1B4
:10120000FF3F08DC50F8041CB1F1FF3F03DC50F84D
:10121000041C0029ECD450F8041C012341F0010106
:1012200040F8041C416A21F00F014162416A21F437
:10123000F8614162416A41F0400141621C21C4F2FF
:1012400002010A6822F001020A6000F134028A6099
:1012500040F2D402C2F20002CA604B600B6823F075
:1012600010030B600B6823F440630B600B6843F4BE
:1012700080630B600B6823F440730B600B6843F4CE
:1012800080730B600B6843F080030B600B6823F0E6
:1012900040030B600B6843F020030B600B6823F4E2
:1012A00040530B600B6843F400530B600B6843F032
:1012B00001030B6050F8041C41F0040140F8041CC9
:1012C000406B508070470000FEE700007047000050
:1012D000EFF3108072B600BFFEE7000030F8110097
:1012E0009FED3A2A00EE100A40F21C10C2F20000F4
:1012F00090ED001AB8EE400A31EE001A31EE001AF5
:1013000031EE001A31EE001A31EE001A31EE001AF9
:1013100031EE001A31EE001A31EE001A31EE001AE9
:1013200031EE001A31EE001A31EE001A31EE001AD9
:1013300031EE001A31EE001A31EE001A31EE001AC9
:1013400031EE001A31EE001A31EE001A31EE001AB9
:1013500031EE001A31EE001A31EE001A31EE001AA9
:1013600031EE001A31EE001A31EE001A31EE001A99
:1013700031EE001A31EE001A31EE001A31EE001A89
:1013800031EE001A31EE001A31EE001A31EE001A79
:1013900031EE001A31EE001A31EE001A31EE001A69
:1013A00031EE001A31EE001A31EE001A31EE001A59
:1013B00031EE001A31EE001A31EE001A31EE000A59
:1013C00080EE020A80ED000A704700BF000048422C
:1013D000014690F82100022816D10868D1E90FC310
:1013E000026822F00E020260026822F0010202602E
:1013F000012000FA03F2CCF8042081F8210000203B
:10140000002281F8202070470420886301200022F8
:1014100081F820207047000090F8211002291DD18A
:1014200080B50268D0F834E0D0E90FC31168BEF18E
:10143000000F21F00E011160116821F0010111600F
:101440004FF0010101FA03F1CCF804104FF4807160
:10145000018418BFF047002080BD00BF04218163D4
:1014600001207047B0B5044600F0FCF8054640F294
:101470000400C2F200000078611C18BF044400BFE1
:1014800000F0F0F8401BA042FAD3B0BD2DE9F04FB8
:1014900083B00C68002C00F0D38040F2004E00F1C5
:1014A000200240F60047C4F2010E0192C4F6000784
:1014B000052200254FF0000B4FF00008B84208BF8E
:1014C000032200924AE000BF40F60002C4F6000288
:1014D000009E904208BF022605F00C030F279F4094
:1014E0002CEA070706FA03F34FEA98023B4344F855
:1014F0002230DEF808204B6842EA0A0740F20C442A
:10150000DE0258BF22EA0A07CEF80870C4F20104CE
:1015100022689E0242EA0A0758BF22EA0A072760A9
:10152000DEF804209E0342EA0A0758BF22EA0A07AF
:10153000CEF80470DEF80020DB0342EA0A0758BF49
:1015400022EA0A07CEF800700C6808F1010834FAA4
:1015500008F20BF1020B05F1040571D0012202FA29
:1015600008FC14EA0C0AEFD04F68032207F00304CA
:10157000661E02FA0BF2012E6FEA020912D8826887
:10158000CE6802EA090206FA0BF63243826042682C
:10159000C7F3001622EA0C0206FA08F6324342604C
:1015A00004E000BF032C01D103241EE0C2688E6852
:1015B00002EA090206FA0BF63243022CC26014D189
:1015C0006FF00302019C02EA580205F01C060F238B
:1015D00054F802C003FA06F70B692CEA0707B34078
:1015E0003B43A3504F6807F00304026804FA0BF36F
:1015F00002EA09021A4317F4403F0260A4D041F204
:101600001803C4F202031A68AEF57E7442F00102B8
:101610001A601A68B0F1904F02F001020292029A29
:1016200028F0030254F802C008D040F20042C4F689
:10163000000290427FF448AF01264DE700264BE7B9
:1016400003B0BDE8F08F0000426902EA0103914354
:1016500041EA0341816170471823002A08BF28230B
:10166000C150704740F20420C2F200000068704789
:1016700040F2040040F20421C2F20000C2F2000174
:1016800000780A68104408607047000080B542F294
:101690000000C4F20200016841F010010160032063
:1016A00000F084F80F2000F005F800F027F8002083
:1016B00080BD000070B540F20406C2F2000640F2A0
:1016C0000C013278C2F200014FF47A730968B3FB5F
:1016D000F2F20446B1FBF2F1084600F063FB0F2C76
:1016E0004FF0010508D838B94FF0FF3021460022ED
:1016F000002500F02FF87460284670BD82B041F2DA
:101700001800C4F20200016841F0010101600168A3
:1017100001F0010101910199416841F0805141605E
:10172000406800F080500090009802B070470000C0
:10173000002848BF704700F01F01012202FA01F1A2
:101740001C2202EAD0004EF20012CEF200028150BA
:101750007047000010B54EF60C5CCEF2000CDCF8C1
:101760000030C3F3022E8EF00704042C28BF04249B
:10177000BEF103034FF0FF3E0EFA04F438BF00231E
:10178000A14399400EFA03F39A43114300F00F026C
:1017900000F160430901043A03F564436244002800
:1017A00048BF02F10C03197010BD00004EF60C5139
:1017B000CEF200010A684FF6FF031A4060F30A22D6
:1017C00042F0806040F0FD7008607047002804BF60
:1017D000012070472DE9F04381B042F20008C4F2C5
:1017E00002080446D8F800000D4600F007008842C1
:1017F0000CD2D8F8000020F007002843C8F80000F9
:10180000D8F8000000F00700A84260D1206841F23B
:1018100004098107C4F2020907D5D9F80010A268AB
:1018200021F0F0011143C9F80010C00746D1D8F8E3
:10183000000000F00700A8420CD9D8F8000020F002
:1018400007002843C8F80000D8F8000000F007009F
:10185000A8423CD12068410707D5D9F80010E268BA
:1018600021F4E0611143C9F80010000708D5D9F848
:101870000000216920F4605040EAC100C9F800006E
:10188000D9F800104FF6C04001F00C02042AC0F253
:101890009B1055D0082A43D145F6AE53C1F383427D
:1018A000C0F600039A5CD9F82830C9033ED440F64C
:1018B0000010C0F23D00504342E000BF606859F89C
:1018C000041C022808D0012826D1890306D401204F
:1018D00001B0BDE8F08300BF8901F8D5D9F8001048
:1018E00021F003010843C9F80000FFF7BBFE0646DC
:1018F00041F28837D9F80000616800F00C00B0EBC5
:10190000810F94D0FFF7AEFE801BB842F2D90320BE
:1019100001B0BDE8F08300BF8907D8D5DEE700BF7E
:1019200041F20020C0F27A000AE000BF03F00F018C
:1019300045F6BE53C0F60003595CB0FBF1F05043CE
:10194000D9F8001045F27E52C1F30311C0F600022F
:10195000515C40F20C0220FA01F140F20800C2F2A0
:1019600000000068C2F200021160FFF7A3FE002031
:1019700001B0BDE8F083000040F20C0041F2040128
:10198000C2F20000C4F202010068096845F28E52FA
:10199000C1F30221C0F60002515CC840704700004C
:1019A00041F20401C4F202010A684FF6C04002F09D
:1019B0000C03042BC0F29B1008BF7047082B11D1F9
:1019C00045F6AE53C2F3834CC0F6000313F80C3057
:1019D000896AD2030CD440F60010C0F23D0058438F
:1019E000704700BF41F20020C0F27A00704700BF8C
:1019F00045F6BE5201F00F01C0F60002515CB0FB8B
:101A0000F1F0584370470000002804BF01207047E0
:101A10002DE9F04182B00446007841F20006C0078B
:101A2000C4F202060CD0706800F00C00042840F0EC
:101A30007F803068800303D56068002800F02E8125
:101A4000207880071BD5706810F00C0F09D07068E3
:101A500000F00C00082840F09F807068C00300F17F
:101A60009B803068800703D52069012840F01681EB
:101A70003068616920F0F80040EAC10030602078E9
:101A8000000713D4207840072AD4E569002D00F020
:101A90000081706800F00C00082840F0BB80012D28
:101AA00040F0EC80012002B0BDE8F081A069002880
:101AB00000F098800020C4F242200121C0F8801478
:101AC000FFF7D0FD054600BF706A8007DAD4FFF744
:101AD000C9FD401B0228F7D9032002B0BDE8F08100
:101AE000F0695FEAC00808D4F06940F08050F06106
:101AF000F06900F080500190019847F20007C4F2AD
:101B000000073868C00561D4386840F480703860D8
:101B1000FFF7A8FD054600BF3868C00556D4FFF79B
:101B2000A1FD401B6428F7D9032002B0BDE8F08175
:101B3000706800F00C00082803D17068C0033FF5FE
:101B400078AF61683068B1F5A02F00F0ED80B1F595
:101B5000803F00F0ED80002920F4803040F0EC80E0
:101B60003060306820F480203060F06AA16820F096
:101B70000F000843F062FFF775FD054630688003EB
:101B80007FF55EAFFFF76EFD401B64284FF003004A
:101B9000F4D902B0BDE8F0812069002840F20000CD
:101BA000C4F2422058D001210160FFF75BFD0546D9
:101BB000306880073FF55CAFFFF754FD401B0228FB
:101BC000F6D9032002B0BDE8F08100BFE168306AB9
:101BD00000296FD0052965D0012940F0838040F0AD
:101BE000010085E00020C4F242200021C0F88014EA
:101BF000FFF738FD054600BF706A80077FF542AFEA
:101C0000FFF730FD401B0228F6D9032002B0BDE8E3
:101C1000F08100BF0027C4F2422700203866FFF79A
:101C200021FD022D05460BD13068800140F1A080D6
:101C3000FFF718FD401B02284FF00300F4D9A8E776
:101C40003068800125D5FFF70DFD401B02284FF0BD
:101C50000300F5D99DE700BF00210160FFF702FDF9
:101C6000054600BF306880077FF509AFFFF7FAFC33
:101C7000401B02284FF00300F4D98AE77068216AFC
:101C800000F480328A4209D1616A00F470108842FF
:101C900004D1002002B0BDE8F08100BF012002B0F5
:101CA000BDE8F08140F004003062306A40F001008D
:101CB0001EE000BF20F001003062306A20F0040016
:101CC0003062FFF7CFFC054641F28837306A800763
:101CD00020D5FFF7C7FC401BB8424FF00300F5D9F1
:101CE00057E700BF20F001003062306A20F00400A6
:101CF0003062FFF7B7FC054641F28837306A80074B
:101D000008D4FFF7AFFC401BB842F7D9032002B05C
:101D1000BDE8F081B8F1000F3FF5B7AEF06920F0F3
:101D20008050F061B1E600BF40F480203060306840
:101D300040F4803004E000BF3060306820F4802040
:101D40003060F06AA16820F00F000843F062FFF7EE
:101D500089FC0546306880033FF572AEFFF782FCD0
:101D6000401B6428F6D9032002B0BDE8F08100BF13
:101D70007068D4E9081220F47410104308437060AE
:101D800001203866FFF76EFC044600BF3068800112
:101D90003FF57FAFFFF766FC001B02284FF0030002
:101DA000F4D9F6E6411E0020B0EB116F1CBF0120F4
:101DB00070474EF21002CEF2000251604EF62351EF
:101DC000CEF20001F0230B70072190601160704784
:101DD00070470000704700007047000070B5016850
:101DE00040F62F03CA690E688C681340202B06F05A
:101DF000200E07D1BEF1000F04D0816E41B3BDE8C3
:101E00007040084740F60F031A4209D040F22013F1
:101E1000C0F2004304F0010C334013EB0C0325D156
:101E2000036ED50616D5012B14D116F0100311D070
:101E300010220A628968490630D4B0F85810B0F808
:101E40005A20B0F85A30002B18BF914240F034822B
:101E500070BD00BFD30213D514F4800310D04FF42B
:101E600080120A62BDE87040FFF7B4BFD30718BF05
:101E700016F4807340F0D080930700F1D780E0E043
:101E8000110640F1DF8116F0800100F0DB81C16EA8
:101E90000029DDD0BDE87040084700BF416F0A68E7
:101EA000526893B2002BD3D0B0F85860B342CFD26F
:101EB000A0F85A208969202900F0A180016851E822
:101EC000001F026821F4807142E80013DBB1016851
:101ED00051E8001F026821F4807142E8001393B1B9
:101EE000016851E8001F026821F4807142E8001384
:101EF0004BB1016851E8001F026821F4807142E88B
:101F00000013002BDAD1016851E8021F026821F0AA
:101F1000010142E80213C3B3016851E8021F0268DD
:101F200021F0010142E802137BB3016851E8021F6E
:101F3000026821F0010142E8021333B3016851E85D
:101F4000021F026821F0010142E80213002BDAD1DE
:101F50001BE000BF016851E8021F026821F0400148
:101F600042E80213DBB1016851E8021F026821F068
:101F7000400142E8021393B1016851E8021F026870
:101F800021F0400142E802134BB1016851E8021F01
:101F9000026821F0400142E80213002BDAD120212F
:101FA000C0F8801000210166016851E8001F026836
:101FB00021F0100142E80013DBB1016851E8001F75
:101FC000026821F0100142E8001393B1016851E862
:101FD000001F026821F0100142E800134BB10168B4
:101FE00051E8001F026821F0100142E80013002BA5
:101FF000DAD1416F04460846FFF7EAF9204602218C
:102000004166B0F85810B0F85A20891A89B2BDE874
:102010007040FFF7DDBE00BF01230B62D0F88430B3
:1020200043F00103C0F8843093070AD5BCF1000FD8
:1020300007D002230B62D0F8843043F00403C0F8C9
:10204000843053070AD5BCF1000F07D004230B627C
:10205000D0F8843043F00203C0F8843013070AD567
:102060005CEA0E0307D008230B62D0F8843043F0FB
:102070000803C0F8843013050BD516F0806308D030
:102080004FF400630B62D0F8843043F02003C0F8B3
:102090008430D0F88430002B3FF4DAAE920608D5B5
:1020A000BEF1000F05D0826E1AB104469047216838
:1020B0002046D0F88420896802F0280201F040010F
:1020C000891807D10446FFF787FE0020C4F8840072
:1020D00070BD00BF016851E8001F026821F49071D3
:1020E00042E80013BBB3016851E8001F026821F405
:1020F000907142E8001373B3016851E8001F026851
:1021000021F4907142E800132BB3016851E8001FDD
:10211000026821F4907142E80013002BDAD11AE032
:10212000016851E8021F026821F0010142E8021330
:10213000DBB1016851E8021F026821F0010142E8A9
:10214000021393B1016851E8021F026821F00101F6
:1021500042E802134BB1016851E8021F026821F006
:10216000010142E80213002BDAD1016E012924D1CA
:10217000016851E8001F026821F0100142E80013D5
:10218000DBB1016851E8001F026821F0100142E84C
:10219000001393B1016851E8001F026821F010019B
:1021A00042E800134BB1016851E8001F026821F0BA
:1021B000100142E80013002BDAD12021C0F8801072
:1021C00000210166026881669168490670D500BFEA
:1021D000016851E8021F026821F0400142E8021341
:1021E000DBB1016851E8021F026821F0400142E8BA
:1021F000021393B1016851E8021F026821F0400107
:1022000042E802134BB1016851E8021F026821F055
:10221000400142E80213002BDAD1416F002947D078
:1022200043F65D02C0F60002044608464A63FFF723
:10223000F3F800283FF40CAE606F416BBDE87040CE
:10224000084700BF51067FF503AE16F0400108BFF6
:1022500070BD00BF016851E8001F026821F0400115
:1022600042E80013DBB1016851E8001F026821F069
:10227000400142E8001393B1016851E8001F026871
:1022800021F0400142E800134BB1016851E8001F02
:10229000026821F0400142E80013002BDAD120212E
:1022A000C1670021C166BDE8704000F0EDB900BF14
:1022B000BDE87040FFF790BD891A00BF026852E880
:1022C000002F036822F4907243E80026BEB3026830
:1022D00052E8002F036822F4907243E8002676B398
:1022E000026852E8002F036822F4907243E8002647
:1022F0002EB3026852E8002F036822F4907243E87C
:102300000026002EDAD11AE0026852E8022F036894
:1023100022F0010243E80226DEB1026852E8022FF1
:10232000036822F0010243E8022696B1026852E8EF
:10233000022F036822F0010243E802264EB1026830
:1023400052E8022F036822F0010243E80226002E21
:10235000DAD12022C0F8802000220266826600BF07
:10236000026852E8002F036822F0100243E80026BA
:10237000DEB1026852E8002F036822F0100243E841
:10238000002696B1026852E8002F036822F010027E
:1023900043E800264EB1026852E8002F036822F09D
:1023A000100243E80026002EDAD1022289B24266EA
:1023B000BDE87040FFF70CBD10B598B10446C06F82
:1023C00028B9002084F87800204600F025F8242061
:1023D000E0672068016821F001010160204601F0FA
:1023E000EFFB08B1012010BD606A10B1204601F07A
:1023F0000DF92168486820F490404860886820F012
:102400002A008860086840F0010220460A60BDE8A2
:10241000104001F06FB9000080B586B0006844F646
:102420000002C4F2000200219042CDE90411CDE97E
:102430000211019102D006B080BD00BF41F214002C
:10244000C4F20200826842F480228260826802F450
:1024500080220092009A026842F400220260006822
:1024600000F40020009000984FF44060019002209A
:10247000CDE90201032004900720059040F60000FA
:10248000C4F6000001A9FFF701F82720002100226F
:10249000FFF760F92720FFF74BF906B080BD000079
:1024A000D0F88030202B07D100294FF0010318BF4E
:1024B000002A05D11846704702231846704700BF0E
:1024C00080B50023036603685B681B0204D401F037
:1024D00025FC002080BD00BF036853E800CFD0F882
:1024E00000E04CF080634EE8003CBCF1000FEED001
:1024F000036853E800CFD0F800E04CF080634EE86A
:10250000003CBCF1000FE2D0036853E800CFD0F8E4
:1025100000E04CF080634EE8003CBCF1000FD6D0E8
:10252000036853E800CFD0F800E04CF080634EE839
:10253000003CBCF1000FCFD1C9E70000006844F6B1
:102540000001C4F20001884218BF7047B0B582B0E4
:1025500040F22004C2F2000420783E281ED862789F
:10256000411C20440A2A2170827019D1A01C002528
:10257000455411A101AA6B46FDF722FE02280BD19A
:10258000019840F27001C2F200010860009840F228
:102590000021C2F200010860257001E000202070D7
:1025A00040F27410611CC2F200000122FFF778FFB4
:1025B00002B0BDE8B040704725662C2566000000DB
:1025C0002DE9F04182B00446C06F20280AD10D46A3
:1025D00000294FF0010018BF002A07D102B0BDE862
:1025E000F08100BF022002B0BDE8F0810020C4F8F5
:1025F000840021209846E0671646FFF733F8A4F8D8
:102600005060A4F85260A1680746B1F5805F01D11F
:10261000206918B12E4600250AE000BF002607E019
:1026200016F8011B0185B4F852000138A4F85200D5
:10263000B4F8520090B12046802100223B46CDF8EC
:10264000008001F021FCC8B92068002EE8D135F8DF
:10265000021B00266FF35F21E4E700BF2046402104
:1026600000223B46CDF8008001F00EFC2021E167FE
:10267000002818BF032002B0BDE8F0812020E067E9
:10268000032002B0BDE8F08170470000FEE70000C3
:1026900010B586B0002041F214040590CDE9030086
:1026A000CDE90100C4F20204206801A940F48020B1
:1026B0002060206800F4802000900098C0200190E5
:1026C00012200290032004900420059040F2004064
:1026D000C4F60000FEF7DAFEA06840F40010A06027
:1026E000A06800F4001000900098E06940F010002D
:1026F000E061FFF755F940F2FC11C2F200010860F9
:1027000045F20040C4F20000016821F001010160BF
:1027100048F6D351C1F280010161016841F0010125
:10272000016006B010BD000040F26402C2F2000277
:1027300092ED0A0AB3EE041AB4EE410AF1EE10FA71
:102740000CDAB4EE410AF1EE10FA17DA40F60000A6
:10275000C4F6000008210122FEF77EBF507A013046
:10276000C1B23229507238BF704740F600000023D2
:10277000C4F6000008215372FEF766BF70470000E0
:102780002DE9F04186B0002641F214000596CDE90E
:102790000366CDE90166C4F20200016840F6000458
:1027A00041F4800101600168C4F6000401F4800175
:1027B000009100990168002241F400210160016844
:1027C0004FF00C0801F4002100910099016841F4D8
:1027D0000031016000680C2100F400300090009886
:1027E0002046FEF739FF01AD012720462946CDE9F5
:1027F00001760396FEF74AFE20462946CDE9018779
:10280000CDE90366FEF742FE06B0BDE8F0810000A8
:1028100080B540F2741044F60001C2F20000C4F228
:10282000000100234FF00C0C4FF4E13280E80E0061
:10283000C0E90333C0E905C3C0E907334362FFF7CA
:10284000BBFD002808BF80BDBDE88040FEF740BD4D
:10285000FEE70000FEE7000070B52DED028B82B0B0
:1028600040F26404C2F2000494ED090A1025BCEEA3
:10287000C00A10EE102A0020012102230095002634
:1028800000F01CFC94ED090A9FED7F8ABCEEC01A93
:10289000B8EE411A30EE410A20EE080ABCEEC00A3A
:1028A00010EE102A142001210323009500F08AFC69
:1028B00094ED0A0A0020BCEEC00A10EE102A032193
:1028C0000223009500F0FAFB94ED0A0A1420BCEEF6
:1028D000C01AB8EE411A30EE410A20EE080ABCEEEA
:1028E000C00A10EE102A03210323009500F06AFCB1
:1028F00094ED170A0020BCEEC00A10EE102A052144
:102900000323009500F0DAFB94ED0B0A3C20BCEEAB
:10291000C00A10EE102A01210223009500F0CEFB20
:1029200094ED0B0A5020BCEEC01AB8EE411A30EEFE
:10293000410A20EE080ABCEEC00A10EE102A01215E
:102940000323009500F03EFC94ED0C0A3420B5EE14
:10295000400A0321F1EE10FA18DA2D220123009625
:1029600000F052FA94ED0C0A3C20B1EE400ABCEEA5
:10297000C00A10EE102A03210223009500F09EFBEE
:1029800094ED0C0AB1EE400A13E000BF20220123AF
:10299000009600F039FA94ED0C0A3C20BCEEC00A17
:1029A00010EE102A03210223009500F087FB94ED1E
:1029B0000C0ABCEEC01AB8EE411A30EE410A20EE05
:1029C000080ABCEEC00A10EE102A10255020032180
:1029D0000323009500F0F6FB94ED130A0026B5EEF4
:1029E000400A34200521F1EE10FA17DA2D220123D6
:1029F000009600F009FA94ED130A3C20B1EE400A6B
:102A0000BCEEC00A10EE102A05210323009500F049
:102A100055FB94ED130AB1EE400A12E02022012387
:102A2000009600F0F1F994ED130A3C20BCEEC00AC8
:102A300010EE102A05210323009500F03FFB94EDD2
:102A4000130ABCEEC01AB8EE411A30EE410A20EE6D
:102A5000080ABCEEC00A10EE102A102558200521E5
:102A60000323009500F0AEFB94ED180A4D20BCEE58
:102A7000C00A10EE102A07210323009500F01EFB68
:102A800002B0BDEC028B70BD00007A4410B582B07C
:102A900000242BA2002000210123009400F016FC4A
:102AA00029A2002002210123009400F00FFC29A29A
:102AB000002004210123009400F008FC0E200121D5
:102AC0002E220123009400F09FF90E2003212E22D4
:102AD0000123009400F098F921A23C200021012359
:102AE000009400F0F3FB21A23C200221012300947A
:102AF00000F0ECFB20A23C2004210123009400F014
:102B0000E5FB4A2001212E220123009400F07CF9EC
:102B10004A2003212E220123009400F075F952204F
:102B200005212E220123009400F06EF915A2002049
:102B300006210223009400F0C9FB02B010BD00BFC3
:102B4000566F6C5F496E3A00566F6C5F4F75743A02
:102B500000000000506F7765725F4C696D3A0000AD
:102B6000437572725F496E3A0000000043757272DD
:102B70005F4F75743A000000506F75745F41637465
:102B80003A0000007461726772745F766F6C2000A7
:102B9000B0B50446B0200021002500F0E5FB102070
:102BA000002100F0E1FB0020002100F0DDFB00BF70
:102BB0002046402100F0D8FB681C45B2B5F1FF3F2C
:102BC000F6DCB1200021002500F0CEFB1020002112
:102BD00000F0CAFB0020002100F0C6FB2046402187
:102BE00000F0C2FB681C45B2B5F1FF3FF6DCB22035
:102BF0000021002500F0B8FB1020002100F0B4FBFC
:102C00000020002100F0B0FB2046402100F0ACFB8A
:102C1000681C45B2B5F1FF3FF6DCB320002100256A
:102C200000F0A2FB1020002100F09EFB00200021FC
:102C300000F09AFB2046402100F096FB681C45B24C
:102C4000B5F1FF3FF6DCB4200021002500F08CFB3D
:102C50001020002100F088FB0020002100F084FB00
:102C60002046402100F080FB681C45B2B5F1FF3FD3
:102C7000F6DCB5200021002500F076FB10200021B5
:102C800000F072FB0020002100F06EFB2046402186
:102C900000F06AFB681C45B2B5F1FF3FF6DCB620D8
:102CA0000021002500F060FB1020002100F05CFBFB
:102CB0000020002100F058FB2046402100F054FB8A
:102CC000681C45B2B5F1FF3FF6DCB72000210025B6
:102CD00000F04AFB1020002100F046FB00200021FC
:102CE00000F042FB2046402100F03EFB681C45B24C
:102CF000B5F1FF3FF6DCB0BD80B5C820FEF7B2FBF2
:102D0000AE20002100F030FB2020002100F02CFB41
:102D10001020002100F028FB0020002100F024FBFF
:102D20001020002100F020FB4020002100F01CFBBF
:102D3000B020002100F018FB8120002100F014FBDE
:102D4000FF20002100F010FBC020002100F00CFB50
:102D5000A020002100F008FBA620002100F004FBC9
:102D6000A820002100F000FB3F20002100F0FCFA29
:102D7000D320002100F0F8FA0020002100F0F4FA3E
:102D8000D520002100F0F0FA8020002100F0ECFABC
:102D9000D820002100F0E8FA0520002100F0E4FA34
:102DA000D920002100F0E0FAF120002100F0DCFA47
:102DB000DA20002100F0D8FA1220002100F0D4FA25
:102DC000DB20002100F0D0FA3020002100F0CCFA06
:102DD0008D20002100F0C8FA1420002100F0C4FA70
:102DE000A420002100F0C0FAA620002100F0BCFAC7
:102DF000AF20002100F0B8FA0020FFF7C9FE6420E0
:102E0000BDE88040FEF72EBB2DE9F04F81B047B200
:102E1000DDF828A0C0F3C010A2F1200601EB4004A9
:102E2000022B27EAE77743D0012B40F09180A4F1F1
:102E30005000C0B2002100F097FAF8B2000910303B
:102E4000002100F091FA07F00F00002100F08CFA49
:102E5000F0B2400045F2965450FA86F1C0F60004F4
:102E600014F81100BAF1000F4FEA410574D080F058
:102E7000FF00402100F078FA2C446078A578E678CD
:102E8000277980F0FF00402100F06EFA85F0FF0006
:102E9000402100F069FA86F0FF00402100F064FA5A
:102EA00087F0FF00402100F05FFA6079C043FEE048
:102EB000A4F15000C0B2002100F056FAF8B20009A7
:102EC00000F1100B5846002100F04EFA07F00F00F9
:102ED0000021009000F048FAF0B245F2BE754FEACA
:102EE0000019C0F6000515F80900BAF1000F4DD021
:102EF00080F0FF00402100F037FA05EB09067078FA
:102F0000B778F57896F8048080F0FF00402100F053
:102F10002BFA87F0FF00402100F026FA85F0FF0031
:102F2000402100F021FA88F0FF00402100F01CFA57
:102F30007079402180F0FF0000F016FAB07940214E
:102F400080F0FF0000F010FAF079C04348E000BFC5
:102F500001B0BDE8F08F00BF402100F005FA2F1945
:102F60007878BC78FD783E79402100F0FDF9204664
:102F7000402100F0F9F92846402100F0F5F93046EB
:102F8000402100F0F1F9787991E000BF402100F094
:102F9000EBF905EB090898F8010098F802605F4624
:102FA00098F803B098F80450402100F0DDF930465D
:102FB000402100F0D9F958464021BB4600F0D4F931
:102FC0002846402100F0D0F998F80500402100F093
:102FD000CBF998F80600402100F0C6F998F80700F0
:102FE000C0B2402100F0C0F9A4F14F00C0B20021EE
:102FF00000F0BAF95846002100F0B6F90098002117
:1030000000F0B2F945F2BE70C0F6000000EB09070F
:10301000387ABAF1000F2BD080F0FF00402100F089
:10302000A3F9787ABC7AFD7A3E7B80F0FF004021DC
:1030300000F09AF984F0FF00402100F095F985F046
:10304000FF00402100F090F986F0FF00402100F0E1
:103050008BF9787B402180F0FF0000F085F9B87B88
:10306000402180F0FF0000F07FF9F87BC0431EE0B4
:10307000402100F079F9787ABC7AFD7A3E7B4021D4
:1030800000F072F92046402100F06EF928464021F8
:1030900000F06AF93046402100F066F9787B402163
:1030A00000F062F9B87B402100F05EF9F87BC0B215
:1030B000402101B0BDE8F04F00F056B92DE9F04FC6
:1030C00085B00F46002B1946049377D093460546EA
:1030D0000E98049A4408511E901ECDE90101C8B211
:1030E00042F2107A4FF000084FF00009039012E00E
:1030F0004FF0010904FB085140F03002C8B2D2B2CF
:103100003946012300260096FFF77EFE049808F159
:103110000108804552D003995FFA88F0814201D1BD
:1031200001202BE001996FEA0800A1EB0801C9B268
:1031300003290499A446014402D201200AE000BFF9
:1031400001F0FC02002301200433DEB2964200FBB2
:103150000AF0F9D111F0030164460FD0012903D11F
:1031600000EB8000400009E04FF47A7242430229EC
:103170004FF0640108BF00FB01F21046BBFBF0F00A
:103180004CF6CD41CCF6CC41A0FB0112D10801EBAD
:103190008101B9F1000FA0EB4100ABD1029941458B
:1031A000A8DD0028A4D104FB08504FF00009C0B2EC
:1031B000394620220123CDF80090A5E705B0BDE8EF
:1031C000F08F00002DE9F04F85B00F46002B194617
:1031D000049377D0934605460E98049A4408511EEE
:1031E000901ECDE90101C8B242F2107A4FF00008FA
:1031F0004FF00009039012E04FF0010904FB085161
:1032000040F03002C8B2D2B23946012300260096FF
:10321000FFF7FAFD049808F10108804552D00399A0
:103220005FFA88F0814201D101202BE001996FEA19
:103230000800A1EB0801C9B203290499A44601447E
:1032400002D201200AE000BF01F0FC0200230120AD
:103250000433DEB2964200FB0AF0F9D111F003010B
:1032600064460FD0012903D100EB8000400009E043
:103270004FF47A72424302294FF0640108BF00FB09
:1032800001F21046BBFBF0F04CF6CD41CCF6CC4140
:10329000A0FB0112D10801EB8101B9F1000FA0EBF5
:1032A0004100ABD102994145A8DD0028A4D104FB1F
:1032B00008504FF00009C0B2394630220123CDF842
:1032C0000090A5E705B0BDE8F08F00002DE9F043C0
:1032D00081B014461278002A43D0DDF82080994648
:1032E0000D4606460027022B18D0B9F1010F2BD14D
:1032F000F0B2E9B2D2B20123CDF80080FFF784FD2D
:103300000636F0B201377A28F8B288BF0135225C60
:1033100088BF0026002AEBD123E000BFF0B2E9B25B
:10332000D2B20223CDF80080FFF76EFD0836F0B26E
:1033300001377828F8B288BF0135225C88BF0026A3
:10334000002AEBD10DE000BFD2B2304629464B46F1
:10335000CDF80080FFF758FD0137F8B2225C002A53
:10336000F2D101B0BDE8F08381B045F20442C4F26D
:1033700000028DF802108DF8030052F8040C40F0A2
:10338000010042F8040C78201060106820F40060FE
:103390001060106840F400301060106820F4806005
:1033A0001060106840F000701060106840F4005029
:1033B0001060506980060DD400200DF1020102E07A
:1033C00053699B0606D45369DB07F9D00B5C0130C7
:1033D0005362F5E752F8040C20F0010042F8040CA7
:1033E00001B070477047000010B52DED028B40F220
:1033F0006404C2F2000494ED090A94ED0B2A94EDE2
:103400000D4A94ED0A1A94ED0C3A20EE022A20EEB1
:10341000040A32EE404A84ED0E0AB2EE0E0A21EEA4
:10342000033A21EE000AB9EE041A83EE048A30EE64
:10343000010AB5EE403A84EE035A84ED122A84ED77
:10344000133A84ED144A84ED1B0AF1EE10FAB8BF6A
:10345000B0EE458A18EE100AFDF740F99FED0E0B0D
:1034600053EC102BFDF71FF99FED0D0AB7EE001A74
:10347000002818BFB0EE480AB4EE410A9FED092AB1
:10348000F1EE10FAC8BFB0EE420A84ED0F0ABDECAF
:10349000028B10BD00BF00BF9A9999999999E93F95
:1034A000CDCC4C3F3333733F70470000FEF7E0B89C
:1034B0004EF68850CEF20000016841F470010160C0
:1034C0007047000041F21000C4F200000168C90713
:1034D00008BF704780B5016821F001010160FFF766
:1034E00083FFBDE8804001F08BB9000041F21C0071
:1034F000C4F202000168002241F01001016041F2B3
:103500000000C4F20000472181626321C1620168AA
:1035100021F080010160C16841F00101C1604EF2FB
:103520003641CEF200010A704EF20411CEF20001D3
:103530004FF480020A60016841F0010101607047A8
:1035400041F21040C4F200000168C90708BF70478B
:10355000B0B582B0016821F00101016040F288003D
:10356000C2F200000068FDF7B9F8044640F294008A
:10357000C2F2000000680D46FDF7B0F841EC100BF8
:1035800004A022462B468DED000B01F057FB02B044
:10359000B0BD00BF566F6C5F4F75743A252E326612
:1035A0002C437572725F6F75743A252E32660D0A60
:1035B0000000000041F21C00C4F202000168002279
:1035C00041F02001016041F20040C4F2000041F6E8
:1035D0001F41816242F20F71C162016821F08001D6
:1035E0000160C16841F00101C1604EF23741CEF285
:1035F00000010A704EF20411CEF200014FF40002F5
:103600000A60016841F0010101607047416ACA0720
:103610000CD18A0715D44A071ED40A0727D4CA0634
:1036200030D48A0639D44A0642D457E00268D0F82A
:1036300028C0536823F4003343EA0C0353608A071D
:10364000E9D50268D0F82CC0536823F4803343EAEC
:103650000C0353604A07E0D50268D0F830C05368C5
:1036600023F4802343EA0C0353600A07D7D502688A
:10367000D0F834C0536823F4004343EA0C0353608A
:10368000CA06CED50268D0F838C0936823F48053B8
:1036900043EA0C0393608A06C5D50268D0F83CC0A3
:1036A000936823F4005343EA0C0393604A0615D54C
:1036B000D0F800C0036CDCF80420B3F5801F22F4BE
:1036C000801242EA0302CCF8042007D1DCF804207F
:1036D000436C22F4C0021A43CCF80420090658BFF8
:1036E00070470168806C4A6822F4002210434860E9
:1036F00070470000B0B582B004460020C4F88400D2
:10370000FDF7B0FF216805460A68120737D56FF04C
:103710007E4C20464FF4001100222B46CDF800C00D
:1037200000F0B2FB50B300BF206850E8000F2168E2
:1037300020F0800041E80002DAB1206850E8000F74
:10374000216820F0800041E8000292B1206850E832
:10375000000F216820F0800041E800024AB1206893
:1037600050E8000F216820F0800041E80002002AA4
:10377000DAD1032020217C226AE000BF216808689A
:1037800040075DD56FF07E4C20464FF4800100224B
:103790002B46CDF800C000F077FB002850D000BFCA
:1037A000206850E8000F216820F4907041E8000282
:1037B000BAB3206850E8000F216820F4907041E807
:1037C000000272B3206850E8000F216820F4907066
:1037D00041E800022AB3206850E8000F216820F475
:1037E000907041E80002002ADAD11AE0206850E81F
:1037F000020F216820F0010041E80202DAB12068DE
:1038000050E8020F216820F0010041E8020292B165
:10381000206850E8020F216820F0010041E8020210
:103820004AB1206850E8020F216820F0010041E809
:103830000202002ADAD103202021802208E000BF02
:103840002020E067C4F88000002164220020216667
:10385000A150002184F8781002B0B0BD406A002168
:10386000A0F85A10A0F85210FEF7B6BAB0F85C20D3
:103870000168D0F88030222B40F0C680898C436DDF
:10388000114023F8021B4365B0F85A100139A0F823
:103890005A10B0F85A10002918BF7047016851E853
:1038A000001F026821F4907142E80013E3B101683F
:1038B00051E8001F026821F4907142E800139BB1A7
:1038C000016851E8001F026821F4907142E800137A
:1038D00053B1016851E8001F026821F4907142E879
:1038E0000013002BDAD100BF016851E8021F026803
:1038F00021F0010142E80213DBB1016851E8021F27
:10390000026821F0010142E8021393B1016851E815
:10391000021F026821F0010142E802134BB1016865
:1039200051E8021F026821F0010142E80213002B56
:10393000DAD12021C0F8801000218166416601683B
:103940004968090236D4016E012918BFFEF7F6BD99
:1039500000210166016851E8001F026821F0100192
:1039600042E80013DBB1016851E8001F026821F052
:10397000100142E8001393B1016851E8001F02688A
:1039800021F0100142E800134BB1016851E8001F1B
:10399000026821F0100142E80013002BDAD101681F
:1039A000CA69D20644BF10220A62B0F85810FEF766
:1039B0000FBA00BF016851E8001F026821F0806162
:1039C00042E80013002BBED0016851E8001F0268D6
:1039D00021F0806142E80013002BB4D0016851E867
:1039E000001F026821F0806142E80013002BAAD07A
:1039F000016851E8001F026821F0806142E800136D
:103A0000002BD7D19FE700BF886940F0080088618C
:103A100070470000B0F85C100268D0F88030222BAC
:103A200040F0C880928C436D11401970416D013196
:103A30004165B0F85A100139A0F85A10B0F85A1080
:103A4000002918BF704700BF016851E8001F0268D5
:103A500021F4907142E80013E3B1016851E8001FBE
:103A6000026821F4907142E800139BB1016851E8AB
:103A7000001F026821F4907142E8001353B10168FD
:103A800051E8001F026821F4907142E80013002BF6
:103A9000DAD100BF016851E8021F026821F001017C
:103AA00042E80213DBB1016851E8021F026821F00D
:103AB000010142E8021393B1016851E8021F026854
:103AC00021F0010142E802134BB1016851E8021FE5
:103AD000026821F0010142E80213002BDAD1202113
:103AE000C0F88010002181664166016849680902BA
:103AF00036D4016E012918BFFEF720BD00210166F2
:103B0000016851E8001F026821F0100142E800132B
:103B1000DBB1016851E8001F026821F0100142E8A2
:103B2000001393B1016851E8001F026821F01001F1
:103B300042E800134BB1016851E8001F026821F010
:103B4000100142E80013002BDAD10168CA69D206DD
:103B500044BF10220A62B0F85810FEF739B900BF0E
:103B6000016851E8001F026821F0806142E80013FB
:103B7000002BBED0016851E8001F026821F080616F
:103B800042E80013002BB4D0016851E8001F02681E
:103B900021F0806142E80013002BAAD0016851E8AF
:103BA000001F026821F0806142E80013002BD7D18A
:103BB0009FE700BF906940F00800906170470000E7
:103BC00010B5044601688068D4E903C362691843EC
:103BD0000243D4F81CE00B6846F6F310CEF6FF70F3
:103BE0001840104340EA0E000860486820F4405036
:103BF00040EA0C004860A069226A8B68104323F4F5
:103C000030621043886044F20040C4F200008142F8
:103C10004FF0000215D044F60000C4F200008142CB
:103C20000FD043F60000C4F20100814220D141F2DE
:103C30003000C4F20200006834A100F0030051F823
:103C4000202041F20020BEF5004FC0F27A0017D1CB
:103C5000082A4FF0010154D8DFE802F006532C5334
:103C6000225353532A0000BFFDF786FE10BB44E0E9
:103C7000102241F20020BEF5004FC0F27A00E7D0DA
:103C8000082A4FF001013CD8DFE802F0063B2A3B4E
:103C90000E3B3B3B280000BFFDF76EFE00BB2CE057
:103CA000FDF77EFE30B928E0FDF77AFEC0B924E0CA
:103CB0004FF4004061684A0802EB4000B0FBF1F0AD
:103CC0004FF6EF72A0F11001914219D84FF6F07142
:103CD0000140C0F3420008440DE000BF4FF4004033
:103CE00061684FF6EF7200EB5100B0FBF1F0A0F10C
:103CF0001001914204D82168C860002101E000BF92
:103D0000012100220846A266E26610BD0000000004
:103D10000400000008000000020000004165A0F857
:103D20005820A0F85A2081680022826671B1B1F152
:103D3000805F07D0B1F5805F0ED1016951B940F2C3
:103D4000FF110AE0016919B13F2106E0016909B1DB
:103D50007F2102E0FF2100E00021A0F85C1000219B
:103D6000C0F884102221C0F8801000BF016851E81B
:103D7000021F026841F0010142E80213DBB1016851
:103D800051E8021F026841F0010142E8021393B1B9
:103D9000016851E8021F026841F0010142E8021384
:103DA0004BB1016851E8021F026841F0010142E88D
:103DB0000213002BDAD182680169B2F5805F07D166
:103DC000A1B343F61521C0F60001816606E000BFED
:103DD00043F61522C0F60002826669B3016851E815
:103DE000001F026841F4907142E80013002B48D094
:103DF000016851E8001F026841F4907142E8001325
:103E0000002B3ED0016851E8001F026841F4907118
:103E100042E80013ABB3016851E8001F026841F4A7
:103E2000907142E80013002BD8D12AE043F66D01CF
:103E3000C0F60001816600BF016851E8001F0268FA
:103E400041F0200142E80013DBB1016851E8001F96
:103E5000026841F0200142E8001393B1016851E883
:103E6000001F026841F0200142E800134BB10168D5
:103E700051E8001F026841F0200142E80013002BC6
:103E8000DAD10020704700002DE9F04104460068B7
:103E90001546C2690E461140891BB1FA81F14909E4
:103EA000A94227D1DDF81880B8F1000F26D018F10B
:103EB000010129D1C1693140891BB1FA81F1490958
:103EC000A94217D1C1693140891BB1FA81F1490971
:103ED000A9420FD1C1693140891BB1FA81F1490969
:103EE000A94207D1C1693140891BB1FA81F1490961
:103EF000A942DFD00020BDE8F08100BFFDF7B2FB92
:103F00000320BDE8F08100BF1F4607E0C0693040D4
:103F1000801BB0FA80F04009A842EBD1FDF7A2FB6C
:103F2000C01B404500F28E80206801684907EDD52E
:103F3000C169090700F18A80C1690905E6D54FF416
:103F400000610162206850E8000F216820F4907041
:103F500041E80002BAB3206850E8000F216820F45D
:103F6000907041E8000272B3206850E8000F2168A9
:103F700020F4907041E800022AB3206850E8000F56
:103F8000216820F4907041E80002002ADAD11AE09A
:103F9000206850E8020F216820F0010041E8020289
:103FA000DAB1206850E8020F216820F0010041E8F2
:103FB000020292B1206850E8020F216820F001004F
:103FC00041E802024AB1206850E8020F216820F05F
:103FD000010041E80202002ADAD1206E012824D132
:103FE000206850E8000F216820F0100041E800022E
:103FF000DAB1206850E8000F216820F0100041E895
:10400000000292B1206850E8000F216820F01000F3
:1040100041E800024AB1206850E8000F216820F012
:10402000100041E80002002ADAD120200021C4F863
:1040300080002166A166C4F88400032084F878100B
:10404000BDE8F0810320BDE8F08100BF08210162D6
:10405000206850E8000F216820F4907041E80002C9
:10406000BAB3206850E8000F216820F4907041E84E
:10407000000272B3206850E8000F216820F49070AD
:1040800041E800022AB3206850E8000F216820F4BC
:10409000907041E80002002ADAD11AE0206850E866
:1040A000020F216820F0010041E80202DAB1206825
:1040B00050E8020F216820F0010041E8020292B1AD
:1040C000206850E8020F216820F0010041E8020258
:1040D0004AB1206850E8020F216820F0010041E851
:1040E0000202002ADAD1206E012824D1206850E88B
:1040F000000F216820F0100041E80002DAB12068CA
:1041000050E8000F216820F0100041E8000292B151
:10411000206850E8000F216820F0100041E80002FC
:104120004AB1206850E8000F216820F0100041E8F3
:104130000002002ADAD12020C4F8800000200821E3
:104140002066A066C4F8841084F878000120BDE8D9
:10415000F081000040F27410C2F20000FDF73EBE94
:10416000FEE700002DE9F04381B02DED048B40F215
:1041700064000021C2F20000C4F2A02140F2100548
:10418000C1650021C2F2000540F22814C4F2A0115A
:104190002A68C2F2000441652046904743F233305A
:1041A00040F200084DF20A764FF07C59C4F27B10C1
:1041B000C4F24008C3F6234647F21447C4E900900E
:1041C000C4E902866662C4F2010797ED000A9FED1A
:1041D0001D8AB8EE400A20EE080A84ED100A97ED19
:1041E000000A9FED199AB8EE400A696820EE090AA4
:1041F000204684ED0F0A884740F2D8042968C2F2AD
:104200000004204688474FF08240C4E90090C4E98A
:104210000286666297ED000A2046B8EE400A20EE5C
:10422000080A84ED100A97ED000A6968B8EE400AA2
:1042300020EE090A84ED0F0ABDEC048B01B0BDE845
:10424000F04308470AD7233D9A99D93FB0B586B0C5
:1042500041F21400C4F202004168002441F0005110
:104260004160416801F00051019101990594CDE947
:104270000344CDE90144016841F400310160006864
:1042800001A900F40030009000984FF47060019094
:1042900002200290032004900D2005904FF09040E2
:1042A000FDF7F4F847F2B845C4F20105D5F8140358
:1042B00040F00200C5F81403D5F8140340F00C00D8
:1042C000C5F814036420FDF7CDF855F8B80C45F88F
:1042D000B84C55F8B80C9FED7B1A45F8B80C55F85A
:1042E000B80C4FF4007245F8B80C55F8B80C45F806
:1042F000B80C55F8B80C45F8B80C55F8B80C45F89A
:10430000B80C55F8B80C45F8B80C55F8B80C40F096
:10431000080045F8B80C55F8B80C45F8B80C4FF43F
:10432000705045F8A40C15ED290AB8EE400A20EEAD
:10433000010ABCEEC00A05ED270A15ED290AB8EE00
:10434000400A20EE010ABCEEC00A05ED250A15ED73
:10435000290AB8EE400A20EE010ABCEEC00A05EDBB
:10436000240A15ED290AB8EE400A20EE010ABCEE37
:10437000C00A05ED230A55F8381C45F8384C55F8A5
:10438000381CB6EE001A45F8381C55F8381C41F0B8
:10439000807145F8381C55F8381C41F0080145F883
:1043A000381C55F8381C45F8381C55F8381C45F8A9
:1043B000381C55F8381C45F8381C15ED290A4FF4FF
:1043C0008071B8EE400A20EE010ABCEEC00A05ED8D
:1043D000040AEC6145F8240C45F8204C6960AA6099
:1043E000E9622A682C602A682A602A682A602A689A
:1043F0002A602A682A602A682A602A682A602A684D
:104400002A602A6842F470122A602A6842F03C024C
:104410002A60AA6CAC64AA6CAA64AA6C42F080728E
:10442000AA64AA6C42F00802AA64AA6CAA64C5F83D
:104430009C40E8652C66D5F8840040F48060C5F89F
:104440008400D5F8880040F40060C5F88800C5F8FD
:10445000AC10D5F88000C5F88040D5F88000C5F8CC
:104460008000D5F88000C5F88000D5F88000C5F838
:104470008000D5F88000C5F88000D5F88000C5F828
:104480008000D5F88000C5F88000D5F88000C5F818
:104490008000D5F8800040F47010C5F88000D5F891
:1044A000800040F03C00C5F880004FF40060C5F883
:1044B0000403D5F8C80240F48000C5F8C80206B06D
:1044C000B0BD00BF3333333F80B582B0019040F2BE
:1044D0007410C2F2000001A901224FF0FF33FEF771
:1044E0006FF8019802B080BD90B0FDF7CFF80024BE
:1044F0000120CDE90B44CDE9094406900A904FF420
:1045000080300E904FF4C0104FF4A02102250F9080
:1045100006A8079108950D95FDF776FA20B1EFF3FF
:10452000108072B6FEE700BF0F20CDE901054FF401
:104530008060CDE9040401A802210394FDF746F947
:1045400020B1EFF3108072B6FEE700BFFEF718F956
:10455000FEF75EF940F2741040F22101C2F2000051
:10456000C2F200010122FDF79BFFFCF70DFDFCF7F5
:10457000F5FD6420FFF76AFEFFF7F4FDFEF788F80B
:104580003220FCF76FFF4FF66C4047F29474CFF681
:10459000FF70C4F20104215841F4803121502158A8
:1045A00041F400312150215841F4802121502068EC
:1045B00040F001002060206840F002002060206888
:1045C00040F004002060206840F0080020603220A5
:1045D000FCF748FF40F26C10C2F2000001884088EE
:1045E00000EE101A9FED2B1A02EE100AB8EE400AE8
:1045F000B8EE422A80EE010A82EE011A40F2B800BB
:104600009FED252AC2F2000090ED003A9FED234A6B
:1046100040F22410C2F2000020EE020A21EE021A3B
:104620009FED1F2A20EE030A23EE011A30EE040A42
:1046300021EE021A81EE002A80ED000A40F22010DD
:10464000C2F2000080ED001A14EDE00A40F2A4006E
:10465000B8EE400AC2F2000022EE000A80ED000A25
:10466000BCEEC00A10EE100A00F020FA0A20FCF797
:10467000F9FEFEF73BFF0A20FCF7F4FEFEF79AFF77
:10468000FEF73AFBFEF702FAFEF7E6F8FEF74CF803
:10469000FAE700BF00F07F45713D5240333333BF2E
:1046A000A4707D3F90ED070A90ED081A90ED092A5D
:1046B00030EE410AB0EEC01AB4EE421AF1EE10FA32
:1046C00080ED0A0A04DA90ED0B1A9FED1B3A13E015
:1046D00090ED042A90ED053A90ED0B1A90ED064A04
:1046E00090ED0C5A21EE033A22EE002A32EE432AD4
:1046F00024EE053A33EE023A90ED0E4A90ED0F2A81
:1047000080ED0D3A33EE043AB4EE423AF1EE10FA8F
:1047100080ED0E3A80ED0C1A80ED0B0A02DD80ED83
:104720000E2A704790ED102AB4EE423AF1EE10FADC
:10473000B8BF80ED0E2A7047000000000021C0E9DC
:104740000A11C0E90C1181637047000090ED000A66
:10475000B5EE400AF1EE10FADEBF4FF07E51016077
:10476000B7EE000A90ED021AB5EE401AF1EE10FA1B
:1047700006D14CF69E119FED171AC7F67F71816026
:1047800090ED092A80EE011AB5EE402AF1EE10FAFA
:10479000BCBF0021416290ED032A90ED014A82EEF8
:1047A000003A24EE022A82EE000AB7EE002A31EE29
:1047B000021A31EE031A33EE033A33EE022A24EEE4
:1047C000011A24EE022A80ED041A80ED052A80EDFC
:1047D000060A70479EC97F7F0021C0E90011C0E929
:1047E0000211C0E904118161C0E90911C0E90B118E
:1047F000C0E90D11C0E90F11704700000000000072
:10480000F0B581B02DED068B40F26406C2F20006D1
:10481000002096ED030A40F26C14C4F2F010C2F2CC
:104820000004F065B3EE071AB5EE400A20460021F9
:10483000F1EE10FAC8BFB0EE401A86ED181A002546
:10484000FCF74CFD2046012186ED040A0127FCF708
:1048500045FD2046022186ED050AFCF73FFD204676
:10486000032186ED060AFCF739FD40F2D400C2F2BE
:104870000000002186ED070AFCF730FD96ED041AD2
:104880009FED7DAA96ED052A81EE0A1A82EE0A2A8C
:104890009FED7A9AB0EE408A96ED150A9FED783A30
:1048A0009FED784A86ED088A21EE091A20EE011A5A
:1048B00021EE031A31EE041A86ED091A22EE091AC6
:1048C0009FED712A20EE010A20EE020A10EE100A76
:1048D000FBF704FF9FED660B53EC102BFBF73CFE40
:1048E000FBF70FFF96ED060A96ED171A80EE0A0AFF
:1048F00096ED0E2A9FED666A31EE422A96ED071A72
:1049000096ED0F3A81EE0A5A9FED601A82EE034A45
:1049100022EE033AB5EE402AF1EE10FA20EE090A33
:1049200020EE010A30EE060A88EE0A6A01EE100A4D
:1049300086ED0B0AB8BFB0EE443A83EE012A9FED34
:10494000550A25EE094A24EE000A9FED534A9FEDD1
:10495000535A30EE040AB06286ED0C0A86ED1A3A1C
:1049600026EE094A9FED4E6A24EE054A34EE064AC9
:10497000B5EE402A86ED0D4A86ED192AF1EE10FAC1
:10498000B8BF0125F078B2EE004AA842B4EE442A3E
:10499000B57018BF3771F1EE10FAF57008DCBAEE99
:1049A000004AB4EE442AF1EE10FAB0EE423A03DACD
:1049B000B0EE443A86ED194A9FED3A4AB4EE441AF5
:1049C000F1EE10FA0BDBB5EE402AF1EE10FA06DB41
:1049D0004DF20A709FED343AC3F62340706670784A
:1049E00040F2281440F2D805C2F20004C2F20005D9
:1049F00038B996ED101A012084ED0E1A85ED0E1AC5
:104A0000707040F21007C2F20007F968284685ED81
:104A1000073A85ED080A8847B07818B195ED0E0A77
:104A200012E000BFB06A316EFA68C4E90710204690
:104A3000904794ED0E1A95ED0E0AB4EE401AF1EE81
:104A400010FAB8BFB0EE410ABCEEC01A84ED0E0AEF
:104A500085ED0E0A11EE100A86ED110ABDEC068BEB
:104A600001B0BDE8F04000F021B800BF00BF00BFBA
:104A70009EEFA7C64B37E5BF00F07F456F1253404E
:104A800036AB7E3FC58F21BFEC51803FE0BE1E415B
:104A9000D12284C1F0851D4185EB83C1AC8B1941C6
:104AA000BC747FC10000BC410AD7233C47F2144CC0
:104AB000C4F2010C9CED001A9FED5D0AB8EE411A9C
:104AC00021EE001ABCEEC11A11EE101A9CED001A6C
:104AD0008142B8EE411A05D99FED562A002321EEF6
:104AE000021A20E09CED002A21EE001AB8EE422ABC
:104AF00022EE002ABCEEC22A12EE101A9CED002A09
:104B0000BCEEC11A401A9FED4B3A11EE101A01EE9D
:104B1000100AB8EE422AB8EE411A22EE032A32EE0B
:104B2000011A0123084680B540F26401C2F2000177
:104B30008A794B71BCEEC11A93421CBF0122CA7123
:104B40008B7111EE10EA9CED001AB8EE411A21EEBD
:104B5000001ABCEEC11A11EE101A8E4509D99CED4F
:104B6000001AB8EE411A21EE001ABCEEC11A11EE7D
:104B700010EA9CED002A9FED301AB8EE422A22EE90
:104B8000012ABCEEC22A12EE101A8E4509D29CED03
:104B9000002AB8EE422A22EE012ABCEEC22A12EE08
:104BA00010EA9CED002AB8EE422A22EE002ABCEE62
:104BB000C22A12EE101A884209D99CED002AB8EEDA
:104BC000422A22EE000ABCEEC00A10EE100A9CED4A
:104BD000000AB8EE400A20EE010ABCEEC00A10EE50
:104BE000101A884209D29CED000AB8EE400A20EE65
:104BF000010ABCEEC00A10EE100ADCF80010091A17
:104C00004908CCF80810DCF8001008444008CCF83B
:104C10001000DCF8000070444008CCF81400DCF808
:104C20000000A0EB0E004008CCF8180080BD00BFCB
:104C30003333733F8FC2753D0AD7233D0FB4054B05
:104C400010B503A9044A029800F0E2F810BC5DF820
:104C500014FB0000C94400080000002002E008C85E
:104C6000121F08C1002AFAD170477047002001E0E6
:104C700001C1121F002AFBD1704700002DE9FF5F20
:104C800082B00021DDE90430020DDDF840B00343BD
:104C900018D044F61050A2F2FF3242431514119876
:104CA00001281FD0A5EB0B00401C5FEA000A4FF063
:104CB00000064E4FDFF83891B046504615D5CAF180
:104CC000000413E0119801244AA3012801D16FEADE
:104CD0000B010298119AC0E90031C0E9024206B006
:104CE000BDE8F09FCBF10000DFE704460021404A19
:104CF000491842EB0450CDE9001012E0E00707D05C
:104D000032463B4640464946FBF748FE80468946C8
:104D100032463B4610461946FBF740FE06460F4614
:104D20006410002CEAD1DDE90401DDE90023BAF1C9
:104D3000000F06DAFBF732FE42464B46FBF72EFE2B
:104D400005E0FBF79DFE42464B46FBF799FE044605
:104D50000E460022284BFBF727FF03D84FF0FF3009
:104D6000014607E00022254B20463146FBF7F4FBC5
:104D7000FBF701FF102409E0002C0ADB0A220023C4
:104D8000FBF7F1FC039B30321A55641E50EA010216
:104D9000F2D1641C039AC4F111031444119A012A3C
:104DA00003D0012208430DD10AE0084304D00020BB
:104DB0004FF0110B119072E7A3EB0B056D1E0DE088
:104DC0005B4504DD4FF0000205F1010504E003DA64
:104DD0004FF00002A5F10105002AECD002981199CC
:104DE000C0E90231C0E9004579E700000000144045
:104DF0000000F03F300000000000F0430000E03F02
:104E000030380A2801D20120704700207047000086
:104E10002DE9FF4F95B09B468946064600250FE2D7
:104E2000252877D100242746F84A0121059400E07F
:104E3000044316F8013F203B01FA03F01042F7D17A
:104E400030782A2811D06FF02F033078A0F130028B
:104E5000092A16D8059A44F0020402EB820203EBF9
:104E600042021044761C0590EFE759F8042B059296
:104E7000002A03DA504244F40054059044F002043E
:104E8000761C30782E2816D116F8010F44F0040451
:104E90002A280DD06FF02F023078A0F13003092BB3
:104EA00009D807EB870302EB4303C718761CF3E727
:104EB00059F8047B761C30786C280FD006DC4C281F
:104EC00017D068280DD06A2814D104E0742810D0B7
:104ED0007A280FD10DE044F400140AE044F4801461
:104EE00001E044F440147278824202D104F5801447
:104EF000761C761C307866280BD013DC582877D0C7
:104F000009DC002875D04528F6D04628F4D047287B
:104F10001AD19DE118E0632835D0642879D065283E
:104F200012D195E1702873D008DC6728F1D0692888
:104F30006FD06E280DD06F2806D1B5E073282CD025
:104F4000752875D0782874D05A46179990476D1CEB
:104F500075E1C4F30250022809D003280DD0D9F816
:104F6000001004280DD00D6009F1040967E1D9F89B
:104F70000010EA17C1E90052F6E7D9F800100D80D9
:104F8000F2E70D70F0E719F8041B8DF8001000200F
:104F90008DF80100EA46012003E059F804AB4FF018
:104FA000FF3061074FF0000102D40DE008F101016C
:104FB0008846B9420FDA8045F8DB1AF80810002954
:104FC000F4D108E008F1010188468142FADB1AF8C1
:104FD00008100029F6D105985B46A0EB080721468A
:104FE0003846179A00F094FA284400EB080507E0C9
:104FF0004DE029E10DE01AF8010B5A461799904748
:10500000B8F10108F7D25B4621463846179A13E1FA
:1050100042E00A220092C4F302524FF0000A022A30
:1050200008D059F804CB032A4FEAEC710AD00DE0FE
:1050300029E02AE009F1070121F00702F2E802C1A4
:10504000914609E00FFA8CFC4FEAEC71042A03D177
:105050004FFA8CFC4FEAEC71002907DA0A4600216E
:10506000DCF1000C61EB02012D2202E0220504D5E7
:105070002B228DF80420012203E0E20701D0202238
:10508000F7E7904659E00A2102E010220DE01021D6
:105090004FF0000A00910BE010224FF0000A44F09C
:1050A00004040827009203E008224FF0000A00924F
:1050B000C4F30252022A05D059F804CB0021032A76
:1050C00008D009E009F1070121F00702F2E802C166
:1050D000914605E01FFA8CFC042A01D10CF0FF0C6C
:1050E0004FF00008220728D5702806D0009B83F0D7
:1050F000100353EA0A0305D00EE040228DF8042085
:10510000012208E05CEA010206D030228DF804207A
:105110008DF8050002229046009B83F0080353EAB5
:105120000A030AD15CEA010201D1620705D53022E7
:105130008DF804204FF001087F1E582804D034A0B9
:1051400003900EA802900DE036A0F9E753466046A2
:10515000009AFBF708FB84460398825C0298401E85
:10516000029002705CEA0100F0D1029806A9081AC8
:1051700000F1200A600702D524F4803400E0012702
:10518000574502DDA7EB0A0000E0002000EB0A0112
:10519000009005984144401A0590E00306D45B4610
:1051A0002146179A059800F0B3F90544002706E058
:1051B00001A85A46C05D179990476D1C7F1C474552
:1051C000F6DBE0030CD55B462146179A059800F004
:1051D0009FF9054404E030205A46179990476D1C0A
:1051E0000099481E00900029F5DC08E00298029919
:1051F0005A460078491C0291179990476D1CBAF1E4
:105200000001AAF1010AF1DC65E1000009280100B2
:10521000303132333435363738396162636465662C
:1052200000000000303132333435363738394142EE
:10523000434445460000000000F058F90544761C40
:10524000307800287FF4ECAD19B02846BDE8F08F27
:10525000620700D4062709F1070222F0070CFCE8D8
:105260000223E14603F000485FEA080C02D00FF287
:10527000702C0DE05FEA045C02D50FF2682C07E0A9
:105280005FEAC47C02D00FF2602C01E0AFF2700C38
:105290004FF0FF3823F00043CDF850C065280CD004
:1052A00006DC452809D046281DD047283DD13DE0E1
:1052B000662818D067287ED138E00021112F01DB45
:1052C000112000E0781CCDE9000106A90EA8FFF727
:1052D000D5FCDDE90F010E9A03910021009207F140
:1052E000010A04914DE04FF000400097CDE9011014
:1052F00006A90EA8FFF7C2FCDDE90F0203920E9B80
:1053000011990022DDF80CA00093049211B9791CC8
:1053100000EB010AB7EB0A0004D4C0F1FF3007F13B
:10532000010A0490AAEB0700019044E0012F00DA83
:1053300001270021112F01DD112000E03846CDE9C1
:10534000000106A90EA8FFF799FCDDE90F010E9AEE
:105350000391002104910092BA4621070CD40399CD
:10536000514500DA8A46BAF1010F05DD009AAAF12B
:105370000101515C302908D0B84202DA10F1040F63
:1053800006DA0121CDE9011015E0AAF10101E9E7F2
:10539000002805DC049901440491AAEB000102E015
:1053A000411C514500DD8A460499401A401C019079
:1053B0004FF000400290200704D40198504501DBD3
:1053C000CDF8048000208DF84F0002980DF14F07B2
:1053D000B0F1004F25D02B200E9002984FF002081C
:1053E00000280CDA404202902D200E9007E00A219E
:1053F0000298FBF7A2F93031029007F8011DB8F1CD
:105400000001A8F10108F2DC02980028EFD1791E12
:105410000E980870307800F0200040F0450007F842
:10542000020D12A8C01B00F107081498007800B103
:10543000012000EB0A01019801EBE071059841445D
:10544000401A401E0590E00306D45B462146179A99
:10545000059800F05DF805441498007818B15A4694
:10546000179990476D1CE00324D55B462146179A97
:10547000059800F04DF805441CE00498002807DB6F
:10548000DDE90301884203DD0098405C179901E0E3
:10549000179930205A469047049805F10105401CA1
:1054A00004900198401E019004D12E205A4617996D
:1054B00090476D1CBAF10001AAF1010ADDDC05E09C
:1054C00017F8010B5A46179990476D1CB8F1000167
:1054D000A8F10108F4DC5B462146179A0598ABE673
:1054E0002D0000002B000000200000002DE9F041FD
:1054F000044600251E461746880404D405E03946B4
:105500002020B0476D1C641EF9D52846BDE8F08107
:105510002DE9F041044600251E469046C80301D5FA
:10552000302700E02027880404D505E041463846AE
:10553000B0476D1C641EF9D52846BDE8F081DDDD5D
:10554000DDDDDCBBBBDDDDDDDDDDDDDDDDDD98886A
:105550008888888888887777777777888888855556
:1055600055566666666666666666666888888333CC
:10557000333222222222222222222228888D000057
:1055800000000000000001020304060708090000F3
:105590000000010203040000000000000000002FD2
:1055A000000000000700070000147F147F1400248F
:1055B0002A7F2A12006264081323003649552250BC
:1055C00000000503000000001C22410000004122F1
:1055D0001C000014083E08140008083E08080000DB
:1055E00000A06000000808080808000060600000D3
:1055F000002010080402003E5149453E0000427F51
:105600004000004261514946002141454B3100189C
:1056100014127F10002745454539003C4A4949305E
:105620000001710905030036494949360006494918
:10563000291E000036360000000056360000000823
:105640001422410000141414141400004122140800
:1056500000020151090600324959513E007C1211E5
:10566000127C007F49494936003E41414122007F7A
:105670004141221C007F49494941007F0909090134
:10568000003E4149497A007F0808087F0000417FB9
:105690004100002040413F01007F08142241007F6B
:1056A00040404040007F020C027F007F0408107FD2
:1056B000003E4141413E007F09090906003E41513B
:1056C000215E007F091929460046494949310001F8
:1056D000017F0101003F4040403F001F2040201F4C
:1056E000003F4038403F006314081463000708700F
:1056F000080700615149454300007F4141000055C2
:105700002A552A55000041417F000004020102048D
:10571000004040404040000001020400002054547A
:105720005478007F484444380038444444200038CA
:105730004444487F00385454541800087E0901023C
:105740000018A4A4A47C007F080404780000447D11
:105750004000004080847D00007F1028440000004D
:10576000417F4000007C04180478007C0804047821
:1057700000384444443800FC24242418001824240D
:1057800018FC007C08040408004854545420000409
:105790003F444020003C4040207C001C2040201C16
:1057A000003C4030403C004428102844001CA0A08D
:1057B000A07C004464544C441414141414140000C9
:1057C00000000000000000000000000000000000D9
:1057D00000F800000000000000333000000000105E
:1057E0000C06100C0600000000000000000040C085
:1057F0007840C0784000043F04043F040400007077
:1058000088FC08300000001820FF211E0000F0086E
:10581000F000E018000000211C031E211E0000F013
:105820000888700000001E2123241927211010165B
:105830000E0000000000000000000000000000005A
:1058400000E01804020000000007182040000002D9
:105850000418E0000000004020180700000040404D
:1058600080F0804040000202010F010202000000AF
:1058700000F0000000000101011F01010100000013
:1058800000000000000080B0700000000000000078
:105890000000000000000001010101010101000001
:1058A0000000000000000030300000000000000098
:1058B000000080601804006018060100000000E08D
:1058C00010080810E000000F102020100F0000103A
:1058D00010F8000000000020203F20200000007091
:1058E0000808088870000030282422213000003089
:1058F0000888884830000018202020110E00000081
:10590000C02010F8000000070424243F240000F801
:105910000888880808000019212020110E0000E0E6
:10592000108888180000000F112020110E00003888
:105930000808C83808000000003F000000000070A0
:10594000880808887000001C222121221C0000E029
:1059500010080810E0000000312222110F000000A2
:1059600000C0C00000000000003030000000000057
:1059700000800000000000008060000000000000C7
:105980008040201008000001020408102000404060
:1059900040404040400004040404040404000008A3
:1059A0001020408000000020100804020100007058
:1059B00048080808F0000000003036010000C03040
:1059C000C828E810E0000718272423140B00000063
:1059D000C038E0000000203C23020227382008F8ED
:1059E000888888700000203F202020110E00C030E1
:1059F000080808083800071820202010080008F8B8
:105A000008080810E000203F202020100F0008F8B0
:105A10008888E8081000203F20202320180008F87C
:105A20008888E8081000203F200003000000C030F4
:105A300008080838000007182020221E020008F875
:105A400008000008F808203F210101213F2000083C
:105A500008F8080800000020203F20200000000077
:105A60000808F8080800C08080807F00000008F85F
:105A700088C028180800203F20012638200008F898
:105A8000080000000000203F20202020300008F8FF
:105A9000F800F8F80800203F003F003F200008F819
:105AA00030C00008F808203F200007183F00E01031
:105AB00008080810E0000F10202020100F0008F840
:105AC00008080808F000203F210101010000E01053
:105AD00008080810E0000F18242438504F0008F878
